:020000042000DA
:1004000098010020210400200448854600F01CF8D3
:1004100000480047ED070020C046C0469801002074
:10042000054880F3088805480168090E044A91428E
:10043000FFD104480047000098010020040000009C
:100440001F00000009040020064C0125064E05E0AF
:10045000E36807CC2B430C3C98471034B442F7D3E5
:10046000FFF7D6FF500900207009002070B516462E
:100470000D46044600F024F80F4B5D6100F05EFA73
:10048000002C09D0012C0AD013204001186100F083
:1004900055FA022C06D009E09120800000E00748C0
:1004A000186103E02120000118612E8000F046FA57
:1004B0000020186170BD00000020024042020000D0
:1004C000044803494160044A426081608260704789
:1004D0002301674500200240AB89EFCDF0B51E46F1
:1004E00017460D460346FFF7EBFF012B06D1A80583
:1004F00004D1002229460120FFF7B8FF094A084825
:100500001061002406E060084000385A285300F0CB
:1005100015FAA41CB442F6D300201061F0BD00000F
:10052000010200000020024002498A68D207FCD084
:10053000086070470038014002E008C8121F08C177
:10054000002AFAD170477047002001E001C1121F54
:10055000002AFBD170470000F8B51349134A0988F7
:100560000020914200D001200022114D6C4602274C
:10057000002193005E18761936786654491CC9B27A
:100580000429F7D363782178DB43DBB2994205D0A5
:10059000E378A178DB43DBB2994200D13843521CA7
:1005A000D2B2042AE4D3F8BD00F8FF1FA55A000018
:1005B0000000FE1F054A01681140012252079142C6
:1005C00003D1406802490860004770470000FE2FD1
:1005D00000000020FEB58168044601A8091D00F056
:1005E000FBF8A1686846083100F0F6F8A16802A897
:1005F0000C3100F0F1F80320A1686268095C115425
:10060000401C1128F8D360680025457061680520FA
:1006100088705349FF20C860A068524BC0780926F3
:100620000F2833D007DC0D2601280BD005287CD0FD
:10063000062870D166E0202834D0A5285CD0AA28EE
:1006400069D15BE00198002810D0009899680002F9
:10065000FF38013809181960187BA268FF2301339D
:100660000C32FFF73BFF6068867054E0009898609A
:1006700002985860A068007C187300284BD10022B3
:100680000121C9061046FFF7F1FE44E002205A6836
:10069000996800F07CF80190606801A98670606834
:1006A000001D36E0606886706168532008716168DB
:1006B0003120487161683020887161683220C871CA
:1006C000A0680B210079032802D0042809D022E079
:1006D00060688170A068616800790872606845721E
:1006E00019E060688170A068616800790872FFF79E
:1006F00033FF616848720EE0002000E0012000F046
:1007000085F808E00198006800906068867014E041
:100710000BE000F061F8606800F0D4F8A068C078E1
:10072000FF280ED0092814D018E00199009808601D
:1007300060688670019800680090606869460830BB
:10074000E7E7BFF34F8F09490748C860BFF34F8FF2
:10075000FEE700F0CDF80198FFF72CFF2570FEBDF5
:1007600000200240240100200400FA0500ED00E012
:1007700008B50022009206E00278009B491ED218BC
:1007800089B2401C00920029F6D1D0B208BD0346C0
:1007900010B50020012B03D0022B08D100230AE062
:1007A000002302E0CC5C20185B1C9342FAD310BDFE
:1007B000CC5A20189B1C9342FAD310BD0021017023
:1007C000016104498160FF310E314160532008709E
:1007D0007047000004000020CA7802708A784270D6
:1007E0004A7882700978C170704700000648FFF7A8
:1007F000E5FF054C044800F029F820780128F9D1DC
:100800000148FFF7E7FEF5E73401002010B50B4C77
:10081000002806D0FF22120221460220FFF726FE02
:1008200010BD00220121C9061046FFF71FFE044A31
:1008300004490320FFF71AFE034AEDE700F8FF1F03
:10084000FFFF00000000FE1FA55A000070B504461F
:10085000C1681A480025814201D9E5602561184820
:10086000C168890725D502214161217800291ED15F
:1008700040682269A16888542069401C2061A168F1
:100880008B780A464E781902314349BA88420ED114
:10089000401E81B21046FFF76BFF2269A1688918DC
:1008A0002039C97F884201D1012020702561E5608F
:1008B00002E0E068401CE060002070BD881300008A
:1008C0000038014030B50546401C417802780802E6
:1008D000104344BA621E29460120FFF758FF291928
:1008E0002039C877E1B2284600F014F830BD000086
:1008F000064801218161064A002111604A1E0261F9
:100900008A1EC2600161C1604160704700100240F0
:100910000000014030B50D460446002304E0E05CD1
:10092000FFF702FE5B1CDBB2AB42F8D302488168E2
:10093000C907FCD030BD0000003801400348C16841
:10094000C907FCD1FF21C1607047000000200240B0
:10095000700900200000002004000000380500207D
:1009600074090020040000209401000048050020C4
:040970000000000083
:0400000520000409CA
:00000001FF
